{
  "contractName": "SupplyChain",
  "abi": [
    {
      "constant": false,
      "inputs": [
        {
          "name": "account",
          "type": "address"
        }
      ],
      "name": "addConsumer",
      "outputs": [],
      "payable": false,
      "stateMutability": "nonpayable",
      "type": "function",
      "signature": "0x112940f9"
    },
    {
      "constant": true,
      "inputs": [
        {
          "name": "account",
          "type": "address"
        }
      ],
      "name": "isRetailer",
      "outputs": [
        {
          "name": "",
          "type": "bool"
        }
      ],
      "payable": false,
      "stateMutability": "view",
      "type": "function",
      "signature": "0x5da09b88"
    },
    {
      "constant": false,
      "inputs": [],
      "name": "renounceConsumer",
      "outputs": [],
      "payable": false,
      "stateMutability": "nonpayable",
      "type": "function",
      "signature": "0x61e6982d"
    },
    {
      "constant": false,
      "inputs": [],
      "name": "renounceDistributor",
      "outputs": [],
      "payable": false,
      "stateMutability": "nonpayable",
      "type": "function",
      "signature": "0x644241db"
    },
    {
      "constant": false,
      "inputs": [],
      "name": "renounceOwnership",
      "outputs": [],
      "payable": false,
      "stateMutability": "nonpayable",
      "type": "function",
      "signature": "0x715018a6"
    },
    {
      "constant": false,
      "inputs": [
        {
          "name": "account",
          "type": "address"
        }
      ],
      "name": "addDistributor",
      "outputs": [],
      "payable": false,
      "stateMutability": "nonpayable",
      "type": "function",
      "signature": "0x7250e224"
    },
    {
      "constant": false,
      "inputs": [
        {
          "name": "account",
          "type": "address"
        }
      ],
      "name": "addFarmer",
      "outputs": [],
      "payable": false,
      "stateMutability": "nonpayable",
      "type": "function",
      "signature": "0x80c3f96d"
    },
    {
      "constant": false,
      "inputs": [],
      "name": "renounceFarmer",
      "outputs": [],
      "payable": false,
      "stateMutability": "nonpayable",
      "type": "function",
      "signature": "0x80fc0ce4"
    },
    {
      "constant": true,
      "inputs": [
        {
          "name": "account",
          "type": "address"
        }
      ],
      "name": "isConsumer",
      "outputs": [
        {
          "name": "",
          "type": "bool"
        }
      ],
      "payable": false,
      "stateMutability": "view",
      "type": "function",
      "signature": "0x834ff739"
    },
    {
      "constant": true,
      "inputs": [],
      "name": "getOwner",
      "outputs": [
        {
          "name": "",
          "type": "address"
        }
      ],
      "payable": false,
      "stateMutability": "view",
      "type": "function",
      "signature": "0x893d20e8"
    },
    {
      "constant": false,
      "inputs": [
        {
          "name": "account",
          "type": "address"
        }
      ],
      "name": "addRetailer",
      "outputs": [],
      "payable": false,
      "stateMutability": "nonpayable",
      "type": "function",
      "signature": "0x8ec4f505"
    },
    {
      "constant": true,
      "inputs": [
        {
          "name": "account",
          "type": "address"
        }
      ],
      "name": "isDistributor",
      "outputs": [
        {
          "name": "",
          "type": "bool"
        }
      ],
      "payable": false,
      "stateMutability": "view",
      "type": "function",
      "signature": "0x8f0c86fa"
    },
    {
      "constant": true,
      "inputs": [],
      "name": "isOwner",
      "outputs": [
        {
          "name": "",
          "type": "bool"
        }
      ],
      "payable": false,
      "stateMutability": "view",
      "type": "function",
      "signature": "0x8f32d59b"
    },
    {
      "constant": true,
      "inputs": [
        {
          "name": "account",
          "type": "address"
        }
      ],
      "name": "isFarmer",
      "outputs": [
        {
          "name": "",
          "type": "bool"
        }
      ],
      "payable": false,
      "stateMutability": "view",
      "type": "function",
      "signature": "0xb9429069"
    },
    {
      "constant": false,
      "inputs": [],
      "name": "renounceRetailer",
      "outputs": [],
      "payable": false,
      "stateMutability": "nonpayable",
      "type": "function",
      "signature": "0xdb0e6a2f"
    },
    {
      "constant": false,
      "inputs": [
        {
          "name": "newOwner",
          "type": "address"
        }
      ],
      "name": "transferOwnership",
      "outputs": [],
      "payable": false,
      "stateMutability": "nonpayable",
      "type": "function",
      "signature": "0xf2fde38b"
    },
    {
      "inputs": [],
      "payable": true,
      "stateMutability": "payable",
      "type": "constructor",
      "signature": "constructor"
    },
    {
      "anonymous": false,
      "inputs": [
        {
          "indexed": false,
          "name": "upc",
          "type": "uint256"
        }
      ],
      "name": "Planted",
      "type": "event",
      "signature": "0x1c3398af928f961cf9c1f49d3892d391f45dde3731266f32690ec2a94c3d3d50"
    },
    {
      "anonymous": false,
      "inputs": [
        {
          "indexed": false,
          "name": "upc",
          "type": "uint256"
        }
      ],
      "name": "Matured",
      "type": "event",
      "signature": "0x599baec82048a2b29f6fb5d2e9cec5c88d01ecd2f9e29e090ae7b8e8160d3d11"
    },
    {
      "anonymous": false,
      "inputs": [
        {
          "indexed": false,
          "name": "upc",
          "type": "uint256"
        }
      ],
      "name": "Harvested",
      "type": "event",
      "signature": "0x8e55ccfc9778ff8eba1646d765cf1982537ce0f9257054a17b48aad745250183"
    },
    {
      "anonymous": false,
      "inputs": [
        {
          "indexed": false,
          "name": "upc",
          "type": "uint256"
        }
      ],
      "name": "Processed",
      "type": "event",
      "signature": "0x5afe3b1bf87069693c075da5c22a98d63d1aef98a30dbbe538d0781a98b77ee5"
    },
    {
      "anonymous": false,
      "inputs": [
        {
          "indexed": false,
          "name": "upc",
          "type": "uint256"
        }
      ],
      "name": "Packed",
      "type": "event",
      "signature": "0x9b3b66e2380b690bae22c73ef1428fb0c91e72fe14a4b6defa13035214187aff"
    },
    {
      "anonymous": false,
      "inputs": [
        {
          "indexed": false,
          "name": "upc",
          "type": "uint256"
        }
      ],
      "name": "ForSale",
      "type": "event",
      "signature": "0xa96ae0fc3224ebd79eebfe54bd130cc9cb94416cddd1f2386115e00b72532468"
    },
    {
      "anonymous": false,
      "inputs": [
        {
          "indexed": false,
          "name": "upc",
          "type": "uint256"
        }
      ],
      "name": "Sold",
      "type": "event",
      "signature": "0x92f64ca637d023f354075a4be751b169c1a8a9ccb6d33cdd0cb3520543995727"
    },
    {
      "anonymous": false,
      "inputs": [
        {
          "indexed": false,
          "name": "upc",
          "type": "uint256"
        }
      ],
      "name": "Shipped",
      "type": "event",
      "signature": "0xf00b9a5725b80c54016f42114f6ed7792d22eecb116011c4afac29c57bef6c95"
    },
    {
      "anonymous": false,
      "inputs": [
        {
          "indexed": false,
          "name": "upc",
          "type": "uint256"
        }
      ],
      "name": "Received",
      "type": "event",
      "signature": "0xa8142743f8f70a4c26f3691cf4ed59718381fb2f18070ec52be1f1022d855557"
    },
    {
      "anonymous": false,
      "inputs": [
        {
          "indexed": false,
          "name": "upc",
          "type": "uint256"
        }
      ],
      "name": "Purchased",
      "type": "event",
      "signature": "0x653d56639fee6b566a5c804764e9689de38645f0b733df89a36a1b7b42173dd8"
    },
    {
      "anonymous": false,
      "inputs": [
        {
          "indexed": false,
          "name": "overpaidAmount",
          "type": "uint256"
        }
      ],
      "name": "Refund",
      "type": "event",
      "signature": "0x2e1897b0591d764356194f7a795238a87c1987c7a877568e50d829d547c92b97"
    },
    {
      "anonymous": false,
      "inputs": [
        {
          "indexed": true,
          "name": "account",
          "type": "address"
        }
      ],
      "name": "ConsumerAdded",
      "type": "event",
      "signature": "0x28b26e7a3d20aedbc5f8f2ebf7da671c0491723a2b78f47a097b0e46dee07142"
    },
    {
      "anonymous": false,
      "inputs": [
        {
          "indexed": true,
          "name": "account",
          "type": "address"
        }
      ],
      "name": "ConsumerRemoved",
      "type": "event",
      "signature": "0xe3f5ed5f263f1f01764a96edfc7d025f511ec5f7d180e8816908b78bcf74f098"
    },
    {
      "anonymous": false,
      "inputs": [
        {
          "indexed": true,
          "name": "account",
          "type": "address"
        }
      ],
      "name": "RetailerAdded",
      "type": "event",
      "signature": "0x71ae26cad02663e3d92efd6ec56031a80d74a20c0ab4183faa8bf262261c9baa"
    },
    {
      "anonymous": false,
      "inputs": [
        {
          "indexed": true,
          "name": "account",
          "type": "address"
        }
      ],
      "name": "RetailerRemoved",
      "type": "event",
      "signature": "0xdb7176e79cffef81cb01767dd0447a0b24bb72ca9778d4b245581086b2a7e6db"
    },
    {
      "anonymous": false,
      "inputs": [
        {
          "indexed": true,
          "name": "account",
          "type": "address"
        }
      ],
      "name": "DistributorAdded",
      "type": "event",
      "signature": "0xddbf200aa634dc3fb81cfd68583dd1040d1c751d335e1d86b631bde3e977fea8"
    },
    {
      "anonymous": false,
      "inputs": [
        {
          "indexed": true,
          "name": "account",
          "type": "address"
        }
      ],
      "name": "DistributorRemoved",
      "type": "event",
      "signature": "0x126174f6cf49c81cdb4a9214c6b8f037bef55b4ec31e4fc776cea2a1c8a88d59"
    },
    {
      "anonymous": false,
      "inputs": [
        {
          "indexed": true,
          "name": "account",
          "type": "address"
        }
      ],
      "name": "FarmerAdded",
      "type": "event",
      "signature": "0x2e0ded4123377a3c2bc9a26f1717655a129e2f20752924d42e730ec89c83dbd0"
    },
    {
      "anonymous": false,
      "inputs": [
        {
          "indexed": true,
          "name": "account",
          "type": "address"
        }
      ],
      "name": "FarmerRemoved",
      "type": "event",
      "signature": "0xa5e0f060af304ab17dd418c7927e3da3ae7868189bf387aee09ab179ccc572f2"
    },
    {
      "anonymous": false,
      "inputs": [
        {
          "indexed": true,
          "name": "oldOwner",
          "type": "address"
        },
        {
          "indexed": true,
          "name": "newOwner",
          "type": "address"
        }
      ],
      "name": "TransferOwnership",
      "type": "event",
      "signature": "0x5c486528ec3e3f0ea91181cff8116f02bfa350e03b8b6f12e00765adbb5af85c"
    },
    {
      "constant": false,
      "inputs": [],
      "name": "kill",
      "outputs": [],
      "payable": false,
      "stateMutability": "nonpayable",
      "type": "function",
      "signature": "0x41c0e1b5"
    },
    {
      "constant": false,
      "inputs": [
        {
          "name": "_upc",
          "type": "uint256"
        },
        {
          "name": "_originFarmerID",
          "type": "address"
        },
        {
          "name": "_originFarmName",
          "type": "string"
        },
        {
          "name": "_originFarmInformation",
          "type": "string"
        },
        {
          "name": "_originFarmLatitude",
          "type": "string"
        },
        {
          "name": "_originFarmLongitude",
          "type": "string"
        },
        {
          "name": "_productNotes",
          "type": "string"
        }
      ],
      "name": "plantItem",
      "outputs": [],
      "payable": false,
      "stateMutability": "nonpayable",
      "type": "function",
      "signature": "0xea0bdcb0"
    },
    {
      "constant": false,
      "inputs": [
        {
          "name": "_upc",
          "type": "uint256"
        }
      ],
      "name": "growItem",
      "outputs": [],
      "payable": false,
      "stateMutability": "nonpayable",
      "type": "function",
      "signature": "0x14ef81b2"
    },
    {
      "constant": false,
      "inputs": [
        {
          "name": "_upc",
          "type": "uint256"
        }
      ],
      "name": "harvestItem",
      "outputs": [],
      "payable": false,
      "stateMutability": "nonpayable",
      "type": "function",
      "signature": "0x333d6a43"
    },
    {
      "constant": false,
      "inputs": [
        {
          "name": "_upc",
          "type": "uint256"
        }
      ],
      "name": "processItem",
      "outputs": [],
      "payable": false,
      "stateMutability": "nonpayable",
      "type": "function",
      "signature": "0x49dae766"
    },
    {
      "constant": false,
      "inputs": [
        {
          "name": "_upc",
          "type": "uint256"
        }
      ],
      "name": "packItem",
      "outputs": [],
      "payable": false,
      "stateMutability": "nonpayable",
      "type": "function",
      "signature": "0xf30fc480"
    },
    {
      "constant": false,
      "inputs": [
        {
          "name": "_upc",
          "type": "uint256"
        },
        {
          "name": "_price",
          "type": "uint256"
        }
      ],
      "name": "sellItem",
      "outputs": [],
      "payable": false,
      "stateMutability": "nonpayable",
      "type": "function",
      "signature": "0x2d923561"
    },
    {
      "constant": false,
      "inputs": [
        {
          "name": "_upc",
          "type": "uint256"
        }
      ],
      "name": "buyItem",
      "outputs": [],
      "payable": true,
      "stateMutability": "payable",
      "type": "function",
      "signature": "0xe7fb74c7"
    },
    {
      "constant": false,
      "inputs": [
        {
          "name": "_upc",
          "type": "uint256"
        }
      ],
      "name": "shipItem",
      "outputs": [],
      "payable": false,
      "stateMutability": "nonpayable",
      "type": "function",
      "signature": "0xf61c899a"
    },
    {
      "constant": false,
      "inputs": [
        {
          "name": "_upc",
          "type": "uint256"
        }
      ],
      "name": "receiveItem",
      "outputs": [],
      "payable": false,
      "stateMutability": "nonpayable",
      "type": "function",
      "signature": "0xa26be999"
    },
    {
      "constant": false,
      "inputs": [
        {
          "name": "_upc",
          "type": "uint256"
        }
      ],
      "name": "purchaseItem",
      "outputs": [],
      "payable": false,
      "stateMutability": "nonpayable",
      "type": "function",
      "signature": "0xd38ea5bf"
    },
    {
      "constant": true,
      "inputs": [
        {
          "name": "_upc",
          "type": "uint256"
        }
      ],
      "name": "fetchItemBufferOne",
      "outputs": [
        {
          "name": "itemSKU",
          "type": "uint256"
        },
        {
          "name": "itemUPC",
          "type": "uint256"
        },
        {
          "name": "ownerID",
          "type": "address"
        },
        {
          "name": "originFarmerID",
          "type": "address"
        },
        {
          "name": "originFarmName",
          "type": "string"
        },
        {
          "name": "originFarmInformation",
          "type": "string"
        },
        {
          "name": "originFarmLatitude",
          "type": "string"
        },
        {
          "name": "originFarmLongitude",
          "type": "string"
        }
      ],
      "payable": false,
      "stateMutability": "view",
      "type": "function",
      "signature": "0x77c45913"
    },
    {
      "constant": true,
      "inputs": [
        {
          "name": "_upc",
          "type": "uint256"
        }
      ],
      "name": "fetchItemBufferTwo",
      "outputs": [
        {
          "name": "itemSKU",
          "type": "uint256"
        },
        {
          "name": "itemUPC",
          "type": "uint256"
        },
        {
          "name": "productID",
          "type": "uint256"
        },
        {
          "name": "productNotes",
          "type": "string"
        },
        {
          "name": "productPrice",
          "type": "uint256"
        },
        {
          "name": "itemState",
          "type": "uint8"
        },
        {
          "name": "distributorID",
          "type": "address"
        },
        {
          "name": "retailerID",
          "type": "address"
        },
        {
          "name": "consumerID",
          "type": "address"
        }
      ],
      "payable": false,
      "stateMutability": "view",
      "type": "function",
      "signature": "0x66225ff9"
    }
  ],
  "bytecode": "0x6080604052336000806101000a81548173ffffffffffffffffffffffffffffffffffffffff021916908373ffffffffffffffffffffffffffffffffffffffff1602179055506000809054906101000a900473ffffffffffffffffffffffffffffffffffffffff1673ffffffffffffffffffffffffffffffffffffffff16600073ffffffffffffffffffffffffffffffffffffffff167f5c486528ec3e3f0ea91181cff8116f02bfa350e03b8b6f12e00765adbb5af85c60405160405180910390a3620000da336200013e640100000000026401000000009004565b620000f433620001a8640100000000026401000000009004565b6200010e3362000212640100000000026401000000009004565b62000128336200027c640100000000026401000000009004565b600160078190555060016006819055506200043e565b62000162816001620002e664010000000002620035cb179091906401000000009004565b8073ffffffffffffffffffffffffffffffffffffffff167f2e0ded4123377a3c2bc9a26f1717655a129e2f20752924d42e730ec89c83dbd060405160405180910390a250565b620001cc816002620002e664010000000002620035cb179091906401000000009004565b8073ffffffffffffffffffffffffffffffffffffffff167fddbf200aa634dc3fb81cfd68583dd1040d1c751d335e1d86b631bde3e977fea860405160405180910390a250565b62000236816003620002e664010000000002620035cb179091906401000000009004565b8073ffffffffffffffffffffffffffffffffffffffff167f71ae26cad02663e3d92efd6ec56031a80d74a20c0ab4183faa8bf262261c9baa60405160405180910390a250565b620002a0816004620002e664010000000002620035cb179091906401000000009004565b8073ffffffffffffffffffffffffffffffffffffffff167f28b26e7a3d20aedbc5f8f2ebf7da671c0491723a2b78f47a097b0e46dee0714260405160405180910390a250565b600073ffffffffffffffffffffffffffffffffffffffff168173ffffffffffffffffffffffffffffffffffffffff16141515156200032357600080fd5b6200033e8282620003a9640100000000026401000000009004565b1515156200034b57600080fd5b60018260000160008373ffffffffffffffffffffffffffffffffffffffff1673ffffffffffffffffffffffffffffffffffffffff16815260200190815260200160002060006101000a81548160ff0219169083151502179055505050565b60008073ffffffffffffffffffffffffffffffffffffffff168273ffffffffffffffffffffffffffffffffffffffff1614151515620003e757600080fd5b8260000160008373ffffffffffffffffffffffffffffffffffffffff1673ffffffffffffffffffffffffffffffffffffffff16815260200190815260200160002060009054906101000a900460ff16905092915050565b6137fb806200044e6000396000f3fe608060405260043610610175576000357c0100000000000000000000000000000000000000000000000000000000900463ffffffff168063112940f91461017a57806314ef81b2146101cb5780632d92356114610206578063333d6a431461024b57806341c0e1b51461028657806349dae7661461029d5780635da09b88146102d857806361e6982d14610341578063644241db1461035857806366225ff91461036f578063715018a6146104ed5780637250e2241461050457806377c459131461055557806380c3f96d146107c157806380fc0ce414610812578063834ff73914610829578063893d20e8146108925780638ec4f505146108e95780638f0c86fa1461093a5780638f32d59b146109a3578063a26be999146109d2578063b942906914610a0d578063d38ea5bf14610a76578063db0e6a2f14610ab1578063e7fb74c714610ac8578063ea0bdcb014610af6578063f2fde38b14610e44578063f30fc48014610e95578063f61c899a14610ed0575b600080fd5b34801561018657600080fd5b506101c96004803603602081101561019d57600080fd5b81019080803573ffffffffffffffffffffffffffffffffffffffff169060200190929190505050610f0b565b005b3480156101d757600080fd5b50610204600480360360208110156101ee57600080fd5b8101908080359060200190929190505050610fba565b005b34801561021257600080fd5b506102496004803603604081101561022957600080fd5b8101908080359060200190929190803590602001909291905050506111ba565b005b34801561025757600080fd5b506102846004803603602081101561026e57600080fd5b81019080803590602001909291905050506113d6565b005b34801561029257600080fd5b5061029b6115ff565b005b3480156102a957600080fd5b506102d6600480360360208110156102c057600080fd5b8101908080359060200190929190505050611692565b005b3480156102e457600080fd5b50610327600480360360208110156102fb57600080fd5b81019080803573ffffffffffffffffffffffffffffffffffffffff1690602001909291905050506118db565b604051808215151515815260200191505060405180910390f35b34801561034d57600080fd5b506103566118f8565b005b34801561036457600080fd5b5061036d611903565b005b34801561037b57600080fd5b506103a86004803603602081101561039257600080fd5b810190808035906020019092919050505061190e565b604051808a8152602001898152602001888152602001806020018781526020018660098111156103d457fe5b60ff1681526020018573ffffffffffffffffffffffffffffffffffffffff1673ffffffffffffffffffffffffffffffffffffffff1681526020018473ffffffffffffffffffffffffffffffffffffffff1673ffffffffffffffffffffffffffffffffffffffff1681526020018373ffffffffffffffffffffffffffffffffffffffff1673ffffffffffffffffffffffffffffffffffffffff168152602001828103825288818151815260200191508051906020019080838360005b838110156104aa57808201518184015260208101905061048f565b50505050905090810190601f1680156104d75780820380516001836020036101000a031916815260200191505b509a505050505050505050505060405180910390f35b3480156104f957600080fd5b50610502611b2b565b005b34801561051057600080fd5b506105536004803603602081101561052757600080fd5b81019080803573ffffffffffffffffffffffffffffffffffffffff169060200190929190505050611caf565b005b34801561056157600080fd5b5061058e6004803603602081101561057857600080fd5b8101908080359060200190929190505050611d5e565b604051808981526020018881526020018773ffffffffffffffffffffffffffffffffffffffff1673ffffffffffffffffffffffffffffffffffffffff1681526020018673ffffffffffffffffffffffffffffffffffffffff1673ffffffffffffffffffffffffffffffffffffffff16815260200180602001806020018060200180602001858103855289818151815260200191508051906020019080838360005b8381101561064a57808201518184015260208101905061062f565b50505050905090810190601f1680156106775780820380516001836020036101000a031916815260200191505b50858103845288818151815260200191508051906020019080838360005b838110156106b0578082015181840152602081019050610695565b50505050905090810190601f1680156106dd5780820380516001836020036101000a031916815260200191505b50858103835287818151815260200191508051906020019080838360005b838110156107165780820151818401526020810190506106fb565b50505050905090810190601f1680156107435780820380516001836020036101000a031916815260200191505b50858103825286818151815260200191508051906020019080838360005b8381101561077c578082015181840152602081019050610761565b50505050905090810190601f1680156107a95780820380516001836020036101000a031916815260200191505b509c5050505050505050505050505060405180910390f35b3480156107cd57600080fd5b50610810600480360360208110156107e457600080fd5b81019080803573ffffffffffffffffffffffffffffffffffffffff1690602001909291905050506120f5565b005b34801561081e57600080fd5b506108276121a4565b005b34801561083557600080fd5b506108786004803603602081101561084c57600080fd5b81019080803573ffffffffffffffffffffffffffffffffffffffff1690602001909291905050506121af565b604051808215151515815260200191505060405180910390f35b34801561089e57600080fd5b506108a76121cc565b604051808273ffffffffffffffffffffffffffffffffffffffff1673ffffffffffffffffffffffffffffffffffffffff16815260200191505060405180910390f35b3480156108f557600080fd5b506109386004803603602081101561090c57600080fd5b81019080803573ffffffffffffffffffffffffffffffffffffffff1690602001909291905050506121f5565b005b34801561094657600080fd5b506109896004803603602081101561095d57600080fd5b81019080803573ffffffffffffffffffffffffffffffffffffffff1690602001909291905050506122a4565b604051808215151515815260200191505060405180910390f35b3480156109af57600080fd5b506109b86122c1565b604051808215151515815260200191505060405180910390f35b3480156109de57600080fd5b50610a0b600480360360208110156109f557600080fd5b8101908080359060200190929190505050612318565b005b348015610a1957600080fd5b50610a5c60048036036020811015610a3057600080fd5b81019080803573ffffffffffffffffffffffffffffffffffffffff1690602001909291905050506124e7565b604051808215151515815260200191505060405180910390f35b348015610a8257600080fd5b50610aaf60048036036020811015610a9957600080fd5b8101908080359060200190929190505050612504565b005b348015610abd57600080fd5b50610ac66126d2565b005b610af460048036036020811015610ade57600080fd5b81019080803590602001909291905050506126dd565b005b348015610b0257600080fd5b50610e42600480360360e0811015610b1957600080fd5b8101908080359060200190929190803573ffffffffffffffffffffffffffffffffffffffff16906020019092919080359060200190640100000000811115610b6057600080fd5b820183602082011115610b7257600080fd5b80359060200191846001830284011164010000000083111715610b9457600080fd5b91908080601f016020809104026020016040519081016040528093929190818152602001838380828437600081840152601f19601f82011690508083019250505050505050919291929080359060200190640100000000811115610bf757600080fd5b820183602082011115610c0957600080fd5b80359060200191846001830284011164010000000083111715610c2b57600080fd5b91908080601f016020809104026020016040519081016040528093929190818152602001838380828437600081840152601f19601f82011690508083019250505050505050919291929080359060200190640100000000811115610c8e57600080fd5b820183602082011115610ca057600080fd5b80359060200191846001830284011164010000000083111715610cc257600080fd5b91908080601f016020809104026020016040519081016040528093929190818152602001838380828437600081840152601f19601f82011690508083019250505050505050919291929080359060200190640100000000811115610d2557600080fd5b820183602082011115610d3757600080fd5b80359060200191846001830284011164010000000083111715610d5957600080fd5b91908080601f016020809104026020016040519081016040528093929190818152602001838380828437600081840152601f19601f82011690508083019250505050505050919291929080359060200190640100000000811115610dbc57600080fd5b820183602082011115610dce57600080fd5b80359060200191846001830284011164010000000083111715610df057600080fd5b91908080601f016020809104026020016040519081016040528093929190818152602001838380828437600081840152601f19601f820116905080830192505050505050509192919290505050612a2e565b005b348015610e5057600080fd5b50610e9360048036036020811015610e6757600080fd5b81019080803573ffffffffffffffffffffffffffffffffffffffff169060200190929190505050612c9c565b005b348015610ea157600080fd5b50610ece60048036036020811015610eb857600080fd5b8101908080359060200190929190505050612d6d565b005b348015610edc57600080fd5b50610f0960048036036020811015610ef357600080fd5b8101908080359060200190929190505050612f6d565b005b610f14336121af565b1515610fae576040517f08c379a00000000000000000000000000000000000000000000000000000000081526004018080602001828103825260278152602001807f736f7272792c206d6573736167652073656e646572206973206e6f742061206381526020017f6f6e73756d65720000000000000000000000000000000000000000000000000081525060400191505060405180910390fd5b610fb78161316d565b50565b8060006009811115610fc857fe5b60096000838152602001908152602001600020600b0160009054906101000a900460ff166009811115610ff757fe5b14151561106c576040517f08c379a00000000000000000000000000000000000000000000000000000000081526004018080602001828103825260108152602001807f6974656d206e6f7420706c616e7465640000000000000000000000000000000081525060200191505060405180910390fd5b6009600083815260200190815260200160002060030160009054906101000a900473ffffffffffffffffffffffffffffffffffffffff168073ffffffffffffffffffffffffffffffffffffffff163373ffffffffffffffffffffffffffffffffffffffff16141515611146576040517f08c379a000000000000000000000000000000000000000000000000000000000815260040180806020018281038252601b8152602001807f6d6573736167652073656e646572206973206e6f74207269676874000000000081525060200191505060405180910390fd5b600160096000858152602001908152602001600020600b0160006101000a81548160ff0219169083600981111561117957fe5b02179055507f599baec82048a2b29f6fb5d2e9cec5c88d01ecd2f9e29e090ae7b8e8160d3d11836040518082815260200191505060405180910390a1505050565b81600460098111156111c857fe5b60096000838152602001908152602001600020600b0160009054906101000a900460ff1660098111156111f757fe5b14151561126c576040517f08c379a000000000000000000000000000000000000000000000000000000000815260040180806020018281038252600f8152602001807f6974656d206e6f74207061636b6564000000000000000000000000000000000081525060200191505060405180910390fd5b6009600084815260200190815260200160002060030160009054906101000a900473ffffffffffffffffffffffffffffffffffffffff168073ffffffffffffffffffffffffffffffffffffffff163373ffffffffffffffffffffffffffffffffffffffff16141515611346576040517f08c379a000000000000000000000000000000000000000000000000000000000815260040180806020018281038252601b8152602001807f6d6573736167652073656e646572206973206e6f74207269676874000000000081525060200191505060405180910390fd5b600560096000868152602001908152602001600020600b0160006101000a81548160ff0219169083600981111561137957fe5b02179055508260096000868152602001908152602001600020600a01819055507fa96ae0fc3224ebd79eebfe54bd130cc9cb94416cddd1f2386115e00b72532468846040518082815260200191505060405180910390a150505050565b80600160098111156113e457fe5b60096000838152602001908152602001600020600b0160009054906101000a900460ff16600981111561141357fe5b141515611488576040517f08c379a00000000000000000000000000000000000000000000000000000000081526004018080602001828103825260108152602001807f6974656d206e6f74206d6174757265640000000000000000000000000000000081525060200191505060405180910390fd5b6009600083815260200190815260200160002060030160009054906101000a900473ffffffffffffffffffffffffffffffffffffffff168073ffffffffffffffffffffffffffffffffffffffff163373ffffffffffffffffffffffffffffffffffffffff16141515611562576040517f08c379a000000000000000000000000000000000000000000000000000000000815260040180806020018281038252601b8152602001807f6d6573736167652073656e646572206973206e6f74207269676874000000000081525060200191505060405180910390fd5b600260096000858152602001908152602001600020600b0160006101000a81548160ff0219169083600981111561159557fe5b021790555060075460096000858152602001908152602001600020600001819055506001600754016007819055507f8e55ccfc9778ff8eba1646d765cf1982537ce0f9257054a17b48aad745250183836040518082815260200191505060405180910390a1505050565b600560009054906101000a900473ffffffffffffffffffffffffffffffffffffffff1673ffffffffffffffffffffffffffffffffffffffff163373ffffffffffffffffffffffffffffffffffffffff16141561169057600560009054906101000a900473ffffffffffffffffffffffffffffffffffffffff1673ffffffffffffffffffffffffffffffffffffffff16ff5b565b80600260098111156116a057fe5b60096000838152602001908152602001600020600b0160009054906101000a900460ff1660098111156116cf57fe5b141515611744576040517f08c379a00000000000000000000000000000000000000000000000000000000081526004018080602001828103825260128152602001807f6974656d206e6f7420686172766573746564000000000000000000000000000081525060200191505060405180910390fd5b6009600083815260200190815260200160002060030160009054906101000a900473ffffffffffffffffffffffffffffffffffffffff168073ffffffffffffffffffffffffffffffffffffffff163373ffffffffffffffffffffffffffffffffffffffff1614151561181e576040517f08c379a000000000000000000000000000000000000000000000000000000000815260040180806020018281038252601b8152602001807f6d6573736167652073656e646572206973206e6f74207269676874000000000081525060200191505060405180910390fd5b600360096000858152602001908152602001600020600b0160006101000a81548160ff0219169083600981111561185157fe5b0217905550600960008481526020019081526020016000206001015460096000858152602001908152602001600020600001540160096000858152602001908152602001600020600801819055507f5afe3b1bf87069693c075da5c22a98d63d1aef98a30dbbe538d0781a98b77ee5836040518082815260200191505060405180910390a1505050565b60006118f18260036131c790919063ffffffff16565b9050919050565b6119013361325b565b565b61190c336132b5565b565b600080600060606000806000806000600960008b8152602001908152602001600020600001549850600960008b8152602001908152602001600020600101549750600960008b8152602001908152602001600020600801549650600960008b81526020019081526020016000206009018054600181600116156101000203166002900480601f016020809104026020016040519081016040528092919081815260200182805460018160011615610100020316600290048015611a125780601f106119e757610100808354040283529160200191611a12565b820191906000526020600020905b8154815290600101906020018083116119f557829003601f168201915b50505050509550600960008b8152602001908152602001600020600a01549450600960008b8152602001908152602001600020600b0160009054906101000a900460ff169350600960008b8152602001908152602001600020600b0160019054906101000a900473ffffffffffffffffffffffffffffffffffffffff169250600960008b8152602001908152602001600020600c0160009054906101000a900473ffffffffffffffffffffffffffffffffffffffff169150600960008b8152602001908152602001600020600d0160009054906101000a900473ffffffffffffffffffffffffffffffffffffffff1690508888888888888888889850985098509850985098509850985098509193959799909294969850565b600560009054906101000a900473ffffffffffffffffffffffffffffffffffffffff1673ffffffffffffffffffffffffffffffffffffffff163373ffffffffffffffffffffffffffffffffffffffff16141515611bf0576040517f08c379a000000000000000000000000000000000000000000000000000000000815260040180806020018281038252601f8152602001807f6d6573736167652073656e646572206973206e6f7420746865206f776e65720081525060200191505060405180910390fd5b600073ffffffffffffffffffffffffffffffffffffffff166000809054906101000a900473ffffffffffffffffffffffffffffffffffffffff1673ffffffffffffffffffffffffffffffffffffffff167f5c486528ec3e3f0ea91181cff8116f02bfa350e03b8b6f12e00765adbb5af85c60405160405180910390a360008060006101000a81548173ffffffffffffffffffffffffffffffffffffffff021916908373ffffffffffffffffffffffffffffffffffffffff160217905550565b611cb8336122a4565b1515611d52576040517f08c379a000000000000000000000000000000000000000000000000000000000815260040180806020018281038252602c8152602001807f736f7272792c206d6573736167652073656e646572206973206e6f742074686581526020017f206469737472756275746f72000000000000000000000000000000000000000081525060400191505060405180910390fd5b611d5b8161330f565b50565b600080600080606080606080600960008a8152602001908152602001600020600001549750600960008a8152602001908152602001600020600101549650600960008a815260200190815260200160002060020160009054906101000a900473ffffffffffffffffffffffffffffffffffffffff169550600960008a815260200190815260200160002060030160009054906101000a900473ffffffffffffffffffffffffffffffffffffffff169450600960008a81526020019081526020016000206004018054600181600116156101000203166002900480601f016020809104026020016040519081016040528092919081815260200182805460018160011615610100020316600290048015611eb85780601f10611e8d57610100808354040283529160200191611eb8565b820191906000526020600020905b815481529060010190602001808311611e9b57829003601f168201915b50505050509350600960008a81526020019081526020016000206005018054600181600116156101000203166002900480601f016020809104026020016040519081016040528092919081815260200182805460018160011615610100020316600290048015611f695780601f10611f3e57610100808354040283529160200191611f69565b820191906000526020600020905b815481529060010190602001808311611f4c57829003601f168201915b50505050509250600960008a81526020019081526020016000206006018054600181600116156101000203166002900480601f01602080910402602001604051908101604052809291908181526020018280546001816001161561010002031660029004801561201a5780601f10611fef5761010080835404028352916020019161201a565b820191906000526020600020905b815481529060010190602001808311611ffd57829003601f168201915b50505050509150600960008a81526020019081526020016000206007018054600181600116156101000203166002900480601f0160208091040260200160405190810160405280929190818152602001828054600181600116156101000203166002900480156120cb5780601f106120a0576101008083540402835291602001916120cb565b820191906000526020600020905b8154815290600101906020018083116120ae57829003601f168201915b50505050509050878787878787878797509750975097509750975097509750919395975091939597565b6120fe336124e7565b1515612198576040517f08c379a00000000000000000000000000000000000000000000000000000000081526004018080602001828103825260258152602001807f736f7272792c206d6573736167652073656e646572206973206e6f742061206681526020017f61726d657200000000000000000000000000000000000000000000000000000081525060400191505060405180910390fd5b6121a181613369565b50565b6121ad336133c3565b565b60006121c58260046131c790919063ffffffff16565b9050919050565b60008060009054906101000a900473ffffffffffffffffffffffffffffffffffffffff16905090565b6121fe336118db565b1515612298576040517f08c379a00000000000000000000000000000000000000000000000000000000081526004018080602001828103825260298152602001807f736f7272792c206d6573736167652073656e646572206973206e6f742074686581526020017f2072657461696c6572000000000000000000000000000000000000000000000081525060400191505060405180910390fd5b6122a18161341d565b50565b60006122ba8260026131c790919063ffffffff16565b9050919050565b60008060009054906101000a900473ffffffffffffffffffffffffffffffffffffffff1673ffffffffffffffffffffffffffffffffffffffff163373ffffffffffffffffffffffffffffffffffffffff1614905090565b806007600981111561232657fe5b60096000838152602001908152602001600020600b0160009054906101000a900460ff16600981111561235557fe5b1415156123ca576040517f08c379a00000000000000000000000000000000000000000000000000000000081526004018080602001828103825260108152602001807f6974656d206e6f7420736869707065640000000000000000000000000000000081525060200191505060405180910390fd5b336009600084815260200190815260200160002060020160006101000a81548173ffffffffffffffffffffffffffffffffffffffff021916908373ffffffffffffffffffffffffffffffffffffffff1602179055503360096000848152602001908152602001600020600c0160006101000a81548173ffffffffffffffffffffffffffffffffffffffff021916908373ffffffffffffffffffffffffffffffffffffffff160217905550600860096000848152602001908152602001600020600b0160006101000a81548160ff021916908360098111156124a757fe5b02179055507fa8142743f8f70a4c26f3691cf4ed59718381fb2f18070ec52be1f1022d855557826040518082815260200191505060405180910390a15050565b60006124fd8260016131c790919063ffffffff16565b9050919050565b806008600981111561251257fe5b60096000838152602001908152602001600020600b0160009054906101000a900460ff16600981111561254157fe5b1415156125b6576040517f08c379a00000000000000000000000000000000000000000000000000000000081526004018080602001828103825260118152602001807f6974656d206e6f7420726563656976656400000000000000000000000000000081525060200191505060405180910390fd5b336009600084815260200190815260200160002060020160006101000a81548173ffffffffffffffffffffffffffffffffffffffff021916908373ffffffffffffffffffffffffffffffffffffffff1602179055503360096000848152602001908152602001600020600d0160006101000a81548173ffffffffffffffffffffffffffffffffffffffff021916908373ffffffffffffffffffffffffffffffffffffffff1602179055506009806000848152602001908152602001600020600b0160006101000a81548160ff0219169083600981111561269257fe5b02179055507f653d56639fee6b566a5c804764e9689de38645f0b733df89a36a1b7b42173dd8826040518082815260200191505060405180910390a15050565b6126db33613477565b565b80600560098111156126eb57fe5b60096000838152602001908152602001600020600b0160009054906101000a900460ff16600981111561271a57fe5b14151561278f576040517f08c379a00000000000000000000000000000000000000000000000000000000081526004018080602001828103825260118152602001807f6974656d206e6f7420666f722073616c6500000000000000000000000000000081525060200191505060405180910390fd5b34803410151515612808576040517f08c379a00000000000000000000000000000000000000000000000000000000081526004018080602001828103825260198152602001807f736f727279207520646f6e2774207061696420656e6f7567680000000000000081525060200191505060405180910390fd5b336009600085815260200190815260200160002060020160006101000a81548173ffffffffffffffffffffffffffffffffffffffff021916908373ffffffffffffffffffffffffffffffffffffffff1602179055503360096000858152602001908152602001600020600b0160016101000a81548173ffffffffffffffffffffffffffffffffffffffff021916908373ffffffffffffffffffffffffffffffffffffffff160217905550600660096000858152602001908152602001600020600b0160006101000a81548160ff021916908360098111156128e557fe5b02179055506009600084815260200190815260200160002060030160009054906101000a900473ffffffffffffffffffffffffffffffffffffffff1673ffffffffffffffffffffffffffffffffffffffff166108fc349081150290604051600060405180830381858888f19350505050158015612966573d6000803e3d6000fd5b507f92f64ca637d023f354075a4be751b169c1a8a9ccb6d33cdd0cb3520543995727836040518082815260200191505060405180910390a180341115612a29573373ffffffffffffffffffffffffffffffffffffffff166108fc8234039081150290604051600060405180830381858888f193505050501580156129ee573d6000803e3d6000fd5b507f2e1897b0591d764356194f7a795238a87c1987c7a877568e50d829d547c92b978134036040518082815260200191505060405180910390a15b505050565b612a37336124e7565b1515612ad1576040517f08c379a00000000000000000000000000000000000000000000000000000000081526004018080602001828103825260258152602001807f736f7272792c206d6573736167652073656e646572206973206e6f742061206681526020017f61726d657200000000000000000000000000000000000000000000000000000081525060400191505060405180910390fd5b866009600089815260200190815260200160002060010181905550600060096000898152602001908152602001600020600b0160006101000a81548160ff02191690836009811115612b1f57fe5b0217905550856009600089815260200190815260200160002060030160006101000a81548173ffffffffffffffffffffffffffffffffffffffff021916908373ffffffffffffffffffffffffffffffffffffffff16021790555084600960008981526020019081526020016000206004019080519060200190612ba392919061372a565b5083600960008981526020019081526020016000206005019080519060200190612bce92919061372a565b5082600960008981526020019081526020016000206006019080519060200190612bf992919061372a565b5081600960008981526020019081526020016000206007019080519060200190612c2492919061372a565b5080600960008981526020019081526020016000206009019080519060200190612c4f92919061372a565b506001600854016008819055507f1c3398af928f961cf9c1f49d3892d391f45dde3731266f32690ec2a94c3d3d50876040518082815260200191505060405180910390a150505050505050565b600560009054906101000a900473ffffffffffffffffffffffffffffffffffffffff1673ffffffffffffffffffffffffffffffffffffffff163373ffffffffffffffffffffffffffffffffffffffff16141515612d61576040517f08c379a000000000000000000000000000000000000000000000000000000000815260040180806020018281038252601f8152602001807f6d6573736167652073656e646572206973206e6f7420746865206f776e65720081525060200191505060405180910390fd5b612d6a816134d1565b50565b8060036009811115612d7b57fe5b60096000838152602001908152602001600020600b0160009054906101000a900460ff166009811115612daa57fe5b141515612e1f576040517f08c379a00000000000000000000000000000000000000000000000000000000081526004018080602001828103825260128152602001807f6974656d206e6f742070726f636573736564000000000000000000000000000081525060200191505060405180910390fd5b6009600083815260200190815260200160002060030160009054906101000a900473ffffffffffffffffffffffffffffffffffffffff168073ffffffffffffffffffffffffffffffffffffffff163373ffffffffffffffffffffffffffffffffffffffff16141515612ef9576040517f08c379a000000000000000000000000000000000000000000000000000000000815260040180806020018281038252601b8152602001807f6d6573736167652073656e646572206973206e6f74207269676874000000000081525060200191505060405180910390fd5b600460096000858152602001908152602001600020600b0160006101000a81548160ff02191690836009811115612f2c57fe5b02179055507f9b3b66e2380b690bae22c73ef1428fb0c91e72fe14a4b6defa13035214187aff836040518082815260200191505060405180910390a1505050565b8060066009811115612f7b57fe5b60096000838152602001908152602001600020600b0160009054906101000a900460ff166009811115612faa57fe5b14151561301f576040517f08c379a00000000000000000000000000000000000000000000000000000000081526004018080602001828103825260118152602001807f6974656d206e6f7420736f6c64206f757400000000000000000000000000000081525060200191505060405180910390fd5b6009600083815260200190815260200160002060030160009054906101000a900473ffffffffffffffffffffffffffffffffffffffff168073ffffffffffffffffffffffffffffffffffffffff163373ffffffffffffffffffffffffffffffffffffffff161415156130f9576040517f08c379a000000000000000000000000000000000000000000000000000000000815260040180806020018281038252601b8152602001807f6d6573736167652073656e646572206973206e6f74207269676874000000000081525060200191505060405180910390fd5b600760096000858152602001908152602001600020600b0160006101000a81548160ff0219169083600981111561312c57fe5b02179055507ff00b9a5725b80c54016f42114f6ed7792d22eecb116011c4afac29c57bef6c95836040518082815260200191505060405180910390a1505050565b6131818160046135cb90919063ffffffff16565b8073ffffffffffffffffffffffffffffffffffffffff167f28b26e7a3d20aedbc5f8f2ebf7da671c0491723a2b78f47a097b0e46dee0714260405160405180910390a250565b60008073ffffffffffffffffffffffffffffffffffffffff168273ffffffffffffffffffffffffffffffffffffffff161415151561320457600080fd5b8260000160008373ffffffffffffffffffffffffffffffffffffffff1673ffffffffffffffffffffffffffffffffffffffff16815260200190815260200160002060009054906101000a900460ff16905092915050565b61326f81600461367b90919063ffffffff16565b8073ffffffffffffffffffffffffffffffffffffffff167fe3f5ed5f263f1f01764a96edfc7d025f511ec5f7d180e8816908b78bcf74f09860405160405180910390a250565b6132c981600261367b90919063ffffffff16565b8073ffffffffffffffffffffffffffffffffffffffff167f126174f6cf49c81cdb4a9214c6b8f037bef55b4ec31e4fc776cea2a1c8a88d5960405160405180910390a250565b6133238160026135cb90919063ffffffff16565b8073ffffffffffffffffffffffffffffffffffffffff167fddbf200aa634dc3fb81cfd68583dd1040d1c751d335e1d86b631bde3e977fea860405160405180910390a250565b61337d8160016135cb90919063ffffffff16565b8073ffffffffffffffffffffffffffffffffffffffff167f2e0ded4123377a3c2bc9a26f1717655a129e2f20752924d42e730ec89c83dbd060405160405180910390a250565b6133d781600161367b90919063ffffffff16565b8073ffffffffffffffffffffffffffffffffffffffff167fa5e0f060af304ab17dd418c7927e3da3ae7868189bf387aee09ab179ccc572f260405160405180910390a250565b6134318160036135cb90919063ffffffff16565b8073ffffffffffffffffffffffffffffffffffffffff167f71ae26cad02663e3d92efd6ec56031a80d74a20c0ab4183faa8bf262261c9baa60405160405180910390a250565b61348b81600361367b90919063ffffffff16565b8073ffffffffffffffffffffffffffffffffffffffff167fdb7176e79cffef81cb01767dd0447a0b24bb72ca9778d4b245581086b2a7e6db60405160405180910390a250565b600073ffffffffffffffffffffffffffffffffffffffff168173ffffffffffffffffffffffffffffffffffffffff161415151561350d57600080fd5b8073ffffffffffffffffffffffffffffffffffffffff166000809054906101000a900473ffffffffffffffffffffffffffffffffffffffff1673ffffffffffffffffffffffffffffffffffffffff167f5c486528ec3e3f0ea91181cff8116f02bfa350e03b8b6f12e00765adbb5af85c60405160405180910390a3806000806101000a81548173ffffffffffffffffffffffffffffffffffffffff021916908373ffffffffffffffffffffffffffffffffffffffff16021790555050565b600073ffffffffffffffffffffffffffffffffffffffff168173ffffffffffffffffffffffffffffffffffffffff161415151561360757600080fd5b61361182826131c7565b15151561361d57600080fd5b60018260000160008373ffffffffffffffffffffffffffffffffffffffff1673ffffffffffffffffffffffffffffffffffffffff16815260200190815260200160002060006101000a81548160ff0219169083151502179055505050565b600073ffffffffffffffffffffffffffffffffffffffff168173ffffffffffffffffffffffffffffffffffffffff16141515156136b757600080fd5b6136c182826131c7565b15156136cc57600080fd5b60008260000160008373ffffffffffffffffffffffffffffffffffffffff1673ffffffffffffffffffffffffffffffffffffffff16815260200190815260200160002060006101000a81548160ff0219169083151502179055505050565b828054600181600116156101000203166002900490600052602060002090601f016020900481019282601f1061376b57805160ff1916838001178555613799565b82800160010185558215613799579182015b8281111561379857825182559160200191906001019061377d565b5b5090506137a691906137aa565b5090565b6137cc91905b808211156137c85760008160009055506001016137b0565b5090565b9056fea165627a7a72305820f2f9cd31530e52c486d527b702fb56165bba6cc911a26f244a72c6550788bbcd0029",
  "source": "pragma solidity ^0.5.0;\nimport 'contracts/coffeecore/Ownable.sol';\nimport 'contracts/coffeeaccesscontrol/ConsumerRole.sol';\nimport 'contracts/coffeeaccesscontrol/DistributorRole.sol';\nimport 'contracts/coffeeaccesscontrol/FarmerRole.sol';\nimport 'contracts/coffeeaccesscontrol/RetailerRole.sol';\n\n// Define a contract 'Supplychain'\ncontract SupplyChain is Ownable,FarmerRole,DistributorRole,RetailerRole,ConsumerRole{\n\n  // Define 'owner'\n  address payable owner;\n\n  // Define a variable called 'upc' for Universal Product Code (UPC)\n  uint  upc;\n\n  // Define a variable called 'sku' for Stock Keeping Unit (SKU)\n  uint  sku;\n\n  // Define a num to count the number of planted coffee tree\n  uint plantedCoffeeTreeCounter;\n\n  // Define a public mapping 'items' that maps the UPC to an Item.\n  mapping (uint => Item) items;\n\n  // Define a public mapping 'itemsHistory' that maps the UPC to an array of TxHash,\n  // that track its journey through the supply chain -- to be sent from DApp.\n  mapping (uint => string[]) itemsHistory;\n\n  // Define enum 'State' with the following values:\n  enum State\n  {\n    Planted,    // 0\n    Matured,    // 1\n    Harvested,  // 2\n    Processed,  // 3\n    Packed,     // 4\n    ForSale,    // 5\n    Sold,       // 6\n    Shipped,    // 7\n    Received,   // 8\n    Purchased   // 9\n    }\n\n  State constant defaultState = State.Harvested;\n\n  // Define a struct 'Item' with the following fields:\n  struct Item {\n    uint    sku;  // Stock Keeping Unit (SKU)\n    uint    upc; // Universal Product Code (UPC), generated by the Farmer, goes on the package, can be verified by the Consumer\n    address payable ownerID;  // Metamask-Ethereum address of the current owner as the product moves through 8 stages\n    address payable originFarmerID; // Metamask-Ethereum address of the Farmer\n    string  originFarmName; // Farmer Name\n    string  originFarmInformation;  // Farmer Information\n    string  originFarmLatitude; // Farm Latitude\n    string  originFarmLongitude;  // Farm Longitude\n    uint    productID;  // Product ID potentially a combination of upc + sku\n    string  productNotes; // Product Notes\n    uint    productPrice; // Product Price\n    State   itemState;  // Product State as represented in the enum above\n    address payable distributorID;  // Metamask-Ethereum address of the Distributor\n    address payable retailerID; // Metamask-Ethereum address of the Retailer\n    address payable consumerID; // Metamask-Ethereum address of the Consumer\n  }\n\n  // Define 10 events with the same 10 state values and accept 'upc' as input argument\n  event Planted(uint upc);\n  event Matured(uint upc);\n  event Harvested(uint upc);\n  event Processed(uint upc);\n  event Packed(uint upc);\n  event ForSale(uint upc);\n  event Sold(uint upc);\n  event Shipped(uint upc);\n  event Received(uint upc);\n  event Purchased(uint upc);\n\n  // Define a event to check is user over paid\n  event Refund(uint overpaidAmount);\n\n  // Define a modifer that checks to see if msg.sender == owner of the contract\n  modifier onlyOwner() {\n    require(msg.sender == owner,\"message sender is not the owner\");\n    _;\n  }\n\n  // Define a modifer that verifies the Caller\n  modifier verifyCaller (address _address) {\n    require(msg.sender == _address,'message sender is not right');\n    _;\n  }\n\n  // Define a modifier that checks if the paid amount is sufficient to cover the price\n  modifier paidEnough(uint _price) {\n    require(\n      msg.value >= _price,\n      \"sorry u don't paid enough\"\n    );\n    _;\n    //transfer money back if over paid\n    if(msg.value > _price){\n      msg.sender.transfer(msg.value - _price);\n      emit Refund(msg.value - _price);\n    }\n  }\n\n    // Define a modifier that checks if an item.state of a upc is Planted\n  modifier isPlanted(uint _upc) {\n    require(items[_upc].itemState == State.Planted,\"item not planted\");\n    _;\n  }\n\n  // Define a modifier that checks if an item.state of a upc is Matured\n  modifier isMatured(uint _upc) {\n    require(items[_upc].itemState == State.Matured,\"item not matured\");\n    _;\n  }\n\n  // Define a modifier that checks if an item.state of a upc is Harvested\n  modifier harvested(uint _upc) {\n    require(items[_upc].itemState == State.Harvested,\"item not harvested\");\n    _;\n  }\n\n  // Define a modifier that checks if an item.state of a upc is Processed\n  modifier processed(uint _upc) {\n    require(items[_upc].itemState == State.Processed,\"item not processed\");\n    _;\n  }\n\n  // Define a modifier that checks if an item.state of a upc is Packed\n  modifier packed(uint _upc) {\n    require(items[_upc].itemState == State.Packed,\"item not packed\");\n    _;\n  }\n\n  // Define a modifier that checks if an item.state of a upc is ForSale\n  modifier forSale(uint _upc) {\n    require(items[_upc].itemState == State.ForSale,\"item not for sale\");\n    _;\n  }\n\n  // Define a modifier that checks if an item.state of a upc is Sold\n  modifier sold(uint _upc) {\n    require(items[_upc].itemState == State.Sold,\"item not sold out\");\n    _;\n  }\n\n  // Define a modifier that checks if an item.state of a upc is Shipped\n  modifier shipped(uint _upc) {\n    require(items[_upc].itemState == State.Shipped,\"item not shipped\");\n    _;\n  }\n\n  // Define a modifier that checks if an item.state of a upc is Received\n  modifier received(uint _upc) {\n    require(items[_upc].itemState == State.Received,\"item not received\");\n    _;\n  }\n\n  // Define a modifier that checks if an item.state of a upc is Purchased\n  modifier purchased(uint _upc) {\n    require(items[_upc].itemState == State.Purchased,\"item not purchased\");\n    _;\n  }\n\n  // In the constructor set 'owner' to the address that instantiated the contract\n  // and set 'sku' to 1\n  // and set 'upc' to 1\n  constructor() public payable FarmerRole() DistributorRole() RetailerRole() ConsumerRole() Ownable() {\n    //owner = msg.sender;\n    sku = 1;\n    upc = 1;\n  }\n\n  // Define a function 'kill' if required\n  function kill() public {\n    if (msg.sender == owner) {\n      selfdestruct(owner);\n    }\n  }\n\n  function plantItem(\n    uint _upc,\n    address payable _originFarmerID,\n    string memory _originFarmName,\n    string memory _originFarmInformation,\n    string memory _originFarmLatitude,\n    string memory  _originFarmLongitude,\n    string memory _productNotes\n    ) public\n    // Call modifier to verify caller of this function\n    //only farmer can plant item\n    onlyFarmer()\n  {\n    // add the new item as part of planted\n    items[_upc].upc = _upc;\n    items[_upc].itemState = State.Planted;\n    items[_upc].originFarmerID = _originFarmerID;\n    items[_upc].originFarmName = _originFarmName;\n    items[_upc].originFarmInformation = _originFarmInformation;\n    items[_upc].originFarmLatitude = _originFarmLatitude;\n    items[_upc].originFarmLongitude = _originFarmLongitude;\n    items[_upc].productNotes = _productNotes;\n\n    //increment planted coffee tree counter\n    plantedCoffeeTreeCounter = plantedCoffeeTreeCounter + 1;\n\n    //emit the planted event\n    emit Planted(_upc);\n  }\n\n  //Define a function 'growItem' that allows a farmer to mark an item 'Matured'\n  function growItem(\n    uint _upc\n  ) public\n  //Call modifier to verify is planted of this plant(coffee tree)\n  isPlanted(_upc)\n  // Call modifier to verify caller of this function\n  verifyCaller(items[_upc].originFarmerID)\n  {\n    // Update the appropriate fields\n    items[_upc].itemState = State.Matured;\n\n    //emit the event\n    emit Matured(_upc);\n  }\n\n  // Define a function 'harvestItem' that allows a farmer to mark an item 'Harvested'\n  function harvestItem(\n    uint _upc\n    ) public\n    // Call modifier to verify is matured of this plant(coffee tree)\n    isMatured(_upc)\n    // Call modifier to verify caller of this function\n    verifyCaller(items[_upc].originFarmerID)\n  {\n    // Update the appropriate fields\n    items[_upc].itemState = State.Harvested;\n    items[_upc].sku = sku;\n\n    // Increment sku\n    sku = sku + 1;\n\n    // Emit the appropriate event\n    emit Harvested(_upc);\n  }\n\n  // Define a function 'processtItem' that allows a farmer to mark an item 'Processed'\n  function processItem(uint _upc) public\n  // Call modifier to check if upc has passed previous supply chain stage\n  harvested(_upc)\n  // Call modifier to verify caller of this function\n  //only the origin farmer can process the product\n  verifyCaller(items[_upc].originFarmerID)\n  {\n    // Update the appropriate fields\n    items[_upc].itemState = State.Processed;\n    items[_upc].productID = items[_upc].sku + items[_upc].upc;\n    // Emit the appropriate event\n    emit Processed(_upc);\n  }\n\n  // Define a function 'packItem' that allows a farmer to mark an item 'Packed'\n  function packItem(uint _upc) public\n  // Call modifier to check if upc has passed previous supply chain stage\n  processed(_upc)\n  // Call modifier to verify caller of this function\n  verifyCaller(items[_upc].originFarmerID)\n  {\n    // Update the appropriate fields\n    items[_upc].itemState = State.Packed;\n    // Emit the appropriate event\n    emit Packed(_upc);\n  }\n\n  // Define a function 'sellItem' that allows a farmer to mark an item 'ForSale'\n  function sellItem(uint _upc, uint _price) public\n  // Call modifier to check if upc has passed previous supply chain stage\n  packed(_upc)\n  // Call modifier to verify caller of this function\n  verifyCaller(items[_upc].originFarmerID)\n  {\n    // Update the appropriate fields\n    items[_upc].itemState = State.ForSale;\n    items[_upc].productPrice = _price;\n    // Emit the appropriate event\n    emit ForSale(_upc);\n  }\n\n  // Define a function 'buyItem' that allows the disributor to mark an item 'Sold'\n  // Use the above defined modifiers to check if the item is available for sale, if the buyer has paid enough,\n  // and any excess ether sent is refunded back to the buyer\n  function buyItem(uint _upc) public payable\n    // Call modifier to check if upc has passed previous supply chain stage\n    forSale(_upc)\n    // Call modifer to check if buyer has paid enough\n    paidEnough(msg.value)\n    // Call modifer to send any excess ether back to buyer\n    //checkValue(msg.value,items[_upc].distributorID)\n    {\n    // Update the appropriate fields - ownerID, distributorID, itemState\n    items[_upc].ownerID = msg.sender;\n    items[_upc].distributorID = msg.sender;\n    items[_upc].itemState = State.Sold;\n    // Transfer money to farmer\n    items[_upc].originFarmerID.transfer(msg.value);\n    // emit the appropriate event\n    emit Sold(_upc);\n  }\n\n  // Define a function 'shipItem' that allows the distributor to mark an item 'Shipped'\n  // Use the above modifers to check if the item is sold\n  function shipItem(uint _upc) public\n    // Call modifier to check if upc has passed previous supply chain stage\n    sold(_upc)\n    // Call modifier to verify caller of this function\n    verifyCaller(items[_upc].originFarmerID)\n    {\n    // Update the appropriate fields\n    items[_upc].itemState = State.Shipped;\n    // Emit the appropriate event\n    emit Shipped(_upc);\n  }\n\n  // Define a function 'receiveItem' that allows the retailer to mark an item 'Received'\n  // Use the above modifiers to check if the item is shipped\n  function receiveItem(uint _upc) public\n    // Call modifier to check if upc has passed previous supply chain stage\n    shipped(_upc)\n    // Access Control List enforced by calling Smart Contract / DApp\n    {\n    // Update the appropriate fields - ownerID, retailerID, itemState\n    items[_upc].ownerID = msg.sender;\n    items[_upc].retailerID = msg.sender;\n    items[_upc].itemState = State.Received;\n\n    // Emit the appropriate event\n    emit Received(_upc);\n  }\n\n  // Define a function 'purchaseItem' that allows the consumer to mark an item 'Purchased'\n  // Use the above modifiers to check if the item is received\n  function purchaseItem(uint _upc) public\n    // Call modifier to check if upc has passed previous supply chain stage\n    received(_upc)\n    // Access Control List enforced by calling Smart Contract / DApp\n    //need to check consumer ID here\n    {\n    // Update the appropriate fields - ownerID, consumerID, itemState\n    items[_upc].ownerID = msg.sender;\n    items[_upc].consumerID = msg.sender;\n    items[_upc].itemState = State.Purchased;\n    // Emit the appropriate event\n    emit Purchased(_upc);\n  }\n\n  // Define a function 'fetchItemBufferOne' that fetches the data\n  function fetchItemBufferOne(uint _upc) public view returns\n  (\n  uint    itemSKU,\n  uint    itemUPC,\n  address ownerID,\n  address originFarmerID,\n  string memory originFarmName,\n  string memory originFarmInformation,\n  string memory originFarmLatitude,\n  string memory originFarmLongitude\n  )\n  {\n  // Assign values to the 8 parameters\n  itemSKU = items[_upc].sku;\n  itemUPC = items[_upc].upc;\n  ownerID = items[_upc].ownerID;\n  originFarmerID = items[_upc].originFarmerID;\n  originFarmName = items[_upc].originFarmName;\n  originFarmInformation = items[_upc].originFarmInformation;\n  originFarmLatitude = items[_upc].originFarmLatitude;\n  originFarmLongitude = items[_upc].originFarmLongitude;\n  return\n  (\n  itemSKU,\n  itemUPC,\n  ownerID,\n  originFarmerID,\n  originFarmName,\n  originFarmInformation,\n  originFarmLatitude,\n  originFarmLongitude\n  );\n  }\n\n  // Define a function 'fetchItemBufferTwo' that fetches the data\n  function fetchItemBufferTwo(uint _upc) public view returns\n  (\n  uint    itemSKU,\n  uint    itemUPC,\n  uint    productID,\n  string memory productNotes,\n  uint    productPrice,\n  State    itemState,\n  address distributorID,\n  address retailerID,\n  address consumerID\n  )\n  {\n    // Assign values to the 9 parameters\n  itemSKU = items[_upc].sku;\n  itemUPC = items[_upc].upc;\n  productID = items[_upc].productID;\n  productNotes = items[_upc].productNotes;\n  productPrice = items[_upc].productPrice;\n  itemState = items[_upc].itemState;\n  distributorID = items[_upc].distributorID;\n  retailerID = items[_upc].retailerID;\n  consumerID = items[_upc].consumerID;\n  return\n  (\n  itemSKU,\n  itemUPC,\n  productID,\n  productNotes,\n  productPrice,\n  itemState,\n  distributorID,\n  retailerID,\n  consumerID\n  );\n  }\n}\n",
  "sourcePath": "/Users/kevin/Dropbox/works/dev/udacity-blockchain-developer-nanodegree-Term2/project-6/contracts/coffeebase/SupplyChain.sol",
  "compiler": {
    "name": "solc",
    "version": "0.5.0+commit.1d4f565a.Emscripten.clang"
  },
  "schemaVersion": "3.0.6",
  "updatedAt": "2019-05-25T09:20:25.166Z",
  "devdoc": {
    "methods": {}
  },
  "userdoc": {
    "methods": {
      "getOwner()": {
        "notice": "Look up the address of the owner"
      },
      "isOwner()": {
        "notice": "Check if the calling address is the owner of the contract"
      },
      "renounceOwnership()": {
        "notice": "Define a function to renounce ownerhip"
      },
      "transferOwnership(address)": {
        "notice": "Define a public function to transfer ownership"
      }
    }
  }
}